{
  "_format": "hh-sol-artifact-1",
  "contractName": "SingleSwap",
  "sourceName": "contracts/SingleSwap.sol",
  "abi": [
    {
      "inputs": [],
      "stateMutability": "nonpayable",
      "type": "constructor"
    },
    {
      "inputs": [],
      "name": "DAI",
      "outputs": [
        {
          "internalType": "address",
          "name": "",
          "type": "address"
        }
      ],
      "stateMutability": "view",
      "type": "function"
    },
    {
      "inputs": [],
      "name": "MATIC",
      "outputs": [
        {
          "internalType": "address",
          "name": "",
          "type": "address"
        }
      ],
      "stateMutability": "view",
      "type": "function"
    },
    {
      "inputs": [],
      "name": "maticToken",
      "outputs": [
        {
          "internalType": "contract IERC20",
          "name": "",
          "type": "address"
        }
      ],
      "stateMutability": "view",
      "type": "function"
    },
    {
      "inputs": [],
      "name": "poolFee",
      "outputs": [
        {
          "internalType": "uint24",
          "name": "",
          "type": "uint24"
        }
      ],
      "stateMutability": "view",
      "type": "function"
    },
    {
      "inputs": [],
      "name": "routerAddress",
      "outputs": [
        {
          "internalType": "address",
          "name": "",
          "type": "address"
        }
      ],
      "stateMutability": "view",
      "type": "function"
    },
    {
      "inputs": [
        {
          "internalType": "uint256",
          "name": "amountIn",
          "type": "uint256"
        }
      ],
      "name": "swapExactInputSingle",
      "outputs": [
        {
          "internalType": "uint256",
          "name": "amountOut",
          "type": "uint256"
        }
      ],
      "stateMutability": "nonpayable",
      "type": "function"
    },
    {
      "inputs": [],
      "name": "swapRouter",
      "outputs": [
        {
          "internalType": "contract ISwapRouter",
          "name": "",
          "type": "address"
        }
      ],
      "stateMutability": "view",
      "type": "function"
    }
  ],
  "bytecode": "0x60a060405273e592427a0aece92de3edee1f18e0157c0586156473ffffffffffffffffffffffffffffffffffffffff1660809073ffffffffffffffffffffffffffffffffffffffff1660601b8152506110106000806101000a81548173ffffffffffffffffffffffffffffffffffffffff021916908373ffffffffffffffffffffffffffffffffffffffff16021790555034801561009c57600080fd5b5060805160601c6107d56100c4600039806101cb528061031252806103c552506107d56000f3fe608060405234801561001057600080fd5b506004361061007d5760003560e01c806373bd43ad1161005b57806373bd43ad146100dc578063c31c9c071461010c578063dc3542961461012a578063e0bab4c4146101485761007d565b8063089fe6aa1461008257806315b550d6146100a05780633268cc56146100be575b600080fd5b61008a610166565b604051610097919061069c565b60405180910390f35b6100a861016c565b6040516100b59190610606565b60405180910390f35b6100c6610172565b6040516100d39190610606565b60405180910390f35b6100f660048036038101906100f1919061048b565b61018a565b60405161010391906106b7565b60405180910390f35b6101146103c3565b6040516101219190610665565b60405180910390f35b6101326103e7565b60405161013f919061064a565b60405180910390f35b61015061040b565b60405161015d9190610606565b60405180910390f35b6101f481565b61101081565b73e592427a0aece92de3edee1f18e0157c0586156481565b60008060009054906101000a900473ffffffffffffffffffffffffffffffffffffffff1673ffffffffffffffffffffffffffffffffffffffff1663095ea7b37f0000000000000000000000000000000000000000000000000000000000000000846040518363ffffffff1660e01b8152600401610208929190610621565b602060405180830381600087803b15801561022257600080fd5b505af1158015610236573d6000803e3d6000fd5b505050506040513d601f19601f8201168201806040525081019061025a9190610462565b50600060405180610100016040528061101073ffffffffffffffffffffffffffffffffffffffff168152602001738f3cf7ad23cd3cadbd9735aff958023239c6a06373ffffffffffffffffffffffffffffffffffffffff1681526020016101f462ffffff1681526020013073ffffffffffffffffffffffffffffffffffffffff16815260200142815260200184815260200160008152602001600073ffffffffffffffffffffffffffffffffffffffff1681525090507f000000000000000000000000000000000000000000000000000000000000000073ffffffffffffffffffffffffffffffffffffffff1663414bf389826040518263ffffffff1660e01b81526004016103699190610680565b602060405180830381600087803b15801561038357600080fd5b505af1158015610397573d6000803e3d6000fd5b505050506040513d601f19601f820116820180604052508101906103bb91906104b4565b915050919050565b7f000000000000000000000000000000000000000000000000000000000000000081565b60008054906101000a900473ffffffffffffffffffffffffffffffffffffffff1681565b738f3cf7ad23cd3cadbd9735aff958023239c6a06381565b60008151905061043281610771565b92915050565b60008135905061044781610788565b92915050565b60008151905061045c81610788565b92915050565b60006020828403121561047457600080fd5b600061048284828501610423565b91505092915050565b60006020828403121561049d57600080fd5b60006104ab84828501610438565b91505092915050565b6000602082840312156104c657600080fd5b60006104d48482850161044d565b91505092915050565b6104e6816106d2565b82525050565b6104f5816106d2565b82525050565b61050481610729565b82525050565b6105138161074d565b82525050565b6101008201600082015161053060008501826104dd565b50602082015161054360208501826104dd565b50604082015161055660408501826105ca565b50606082015161056960608501826104dd565b50608082015161057c60808501826105e8565b5060a082015161058f60a08501826105e8565b5060c08201516105a260c08501826105e8565b5060e08201516105b560e08501826105bb565b50505050565b6105c4816106f0565b82525050565b6105d381610710565b82525050565b6105e281610710565b82525050565b6105f18161071f565b82525050565b6106008161071f565b82525050565b600060208201905061061b60008301846104ec565b92915050565b600060408201905061063660008301856104ec565b61064360208301846105f7565b9392505050565b600060208201905061065f60008301846104fb565b92915050565b600060208201905061067a600083018461050a565b92915050565b6000610100820190506106966000830184610519565b92915050565b60006020820190506106b160008301846105d9565b92915050565b60006020820190506106cc60008301846105f7565b92915050565b60006106dd826106f0565b9050919050565b60008115159050919050565b600073ffffffffffffffffffffffffffffffffffffffff82169050919050565b600062ffffff82169050919050565b6000819050919050565b60006107348261073b565b9050919050565b6000610746826106f0565b9050919050565b60006107588261075f565b9050919050565b600061076a826106f0565b9050919050565b61077a816106e4565b811461078557600080fd5b50565b6107918161071f565b811461079c57600080fd5b5056fea2646970667358221220bdf11702f34b714f1a57dc20536ee8b93add276112405611a872cf254ff5b71a64736f6c63430007060033",
  "linkReferences": {},
  "deployedLinkReferences": {}
}